:100000000C9435000C945D000C945D000C945D0024
:100010000C945D000C945D000C945D000C945D00EC
:100020000C945D000C945D000C945D000C945D00DC
:100030000C945D000C945D000C945D000C945D00CC
:100040000C9479000C945D000C9410020C94410205
:100050000C945D000C945D000C945D000C945D00AC
:100060000C945D000C945D00060311241FBECFEFBD
:10007000D8E0DEBFCDBF11E0A0E0B1E0EEEEF8E0E9
:1000800002C005900D92A031B107D9F711E0A0E1AF
:10009000B1E001C01D92A03CB107E1F710E0CAE653
:1000A000D0E004C02297FE010E947104C836D10737
:1000B000C9F70E9443030C9475040C94000081EA74
:1000C00091E040E855E260E070E00E948802089507
:1000D0000E94C100AB01BC0181EA91E02AE030E05E
:1000E0000E94130468EE73E080E090E00E94F50047
:1000F00008951F920F920FB60F9211242F933F93E2
:100100008F939F93AF93BF938091140190911501AA
:10011000A0911601B0911701309118010196A11D0F
:10012000B11D232F2D5F2D3720F02D570196A11DD6
:10013000B11D209318018093140190931501A09391
:100140001601B09317018091100190911101A091B7
:100150001201B09113010196A11DB11D80931001F0
:1001600090931101A0931201B0931301BF91AF912D
:100170009F918F913F912F910F900FBE0F901F90E5
:1001800018958FB7F8942091140130911501409182
:100190001601509117018FBFB901CA0108959FB789
:1001A000F894209110013091110140911201509169
:1001B000130186B5A89B06C08F3F21F02F5F3F4FEC
:1001C0004F4F5F4F9FBF542F432F322F2227280FAF
:1001D000311D411D511D82E0220F331F441F551F49
:1001E0008A95D1F7B901CA010895EF92FF920F9352
:1001F0001F93CF93DF937B018C010E94CF00EB0113
:100200000FC00E94CF006C1B7D0B83E0683E780717
:1002100038F00894E108F10801091109C851DC4FD0
:10022000E114F1040105110561F7DF91CF911F91F0
:100230000F91FF90EF900895789484B5826084BD0B
:1002400084B5816084BD85B5826085BD85B58160DA
:1002500085BDEEE6F0E0808181608083E1E8F0E03A
:100260001082808182608083808181608083E0E869
:10027000F0E0808181608083E1EBF0E08081846048
:100280008083E0EBF0E0808181608083EAE7F0E04A
:1002900080818460808380818260808380818160AE
:1002A00080838081806880831092C1000895FC0162
:1002B00084859585FC01E05CFF4F208131818E5B58
:1002C0009F4FFC0180819181281B390B2F73307067
:1002D000C9010895FC0184859585FC01E05CFF4F10
:1002E00040815181FC01EE5BFF4F2081318142173B
:1002F000530741F00190F081E02DE80FF91F2081B4
:1003000030E002C02FEF3FEFC9010895FC01848562
:100310009585FC01E05CFF4F40815181FC01EE5B63
:10032000FF4F208131814217530771F0A081B181C5
:10033000A80FB91F2C918081918101968F739070C5
:100340009183808330E002C02FEF3FEFC901089511
:10035000DC011E968D919C911F97FC01E05CFF4F84
:100360008E5B9F4F40815181DC012D913C91119713
:1003700042175307B9F708951F93FC01162F2685DE
:100380003785D901A05CBF4F8D919C91019660E4A7
:1003900070E00E942604D901AE5BBF4F4D915C9185
:1003A000119784179507D1F3D901A05CBF4F0D9029
:1003B000BC91A02DA20FB31F1C93A685B785A05C8E
:1003C000BF4F11969C938E93A689B7892C9181E09B
:1003D00090E0058C02C0880F991F0A94E2F7282B41
:1003E0002C9381E090E01F910895FB01E05CFF4FAA
:1003F000208131812F5F3F4F2F733070DB01AE5B67
:10040000BF4F4D915C9111972417350739F0A081AA
:10041000B181A60FB71F8C9331832083089508956F
:100420001F920F920FB60F9211242F933F934F9369
:100430005F936F937F938F939F93AF93BF93EF934C
:10044000FF938091C60069E171E00E94F501FF9180
:10045000EF91BF91AF919F918F917F916F915F913C
:100460004F913F912F910F900FBE0F901F901895B5
:1004700081EA91E00E945701009711F00E940F025B
:1004800008951F920F920FB60F9211242F933F934E
:100490005F936F937F938F939F93AF93BF93EF93EC
:1004A000FF9320919D0130919E0180919F01909139
:1004B000A0012817390731F48091C1008F7D809306
:1004C000C10016C0E0919F01F091A001E35AFE4FD8
:1004D000208180919F019091A001019660E470E0DD
:1004E0000E9426049093A00180939F012093C60050
:1004F000FF91EF91BF91AF919F918F917F916F91FC
:100500005F913F912F910F900FBE0F901F90189504
:10051000DF92EF92FF920F931F93CF93DF93EC0143
:100520007A018B01DD24D394403081EE580780E0BE
:10053000680780E0780749F4DD24EC89FD891082A2
:1005400060E874E88EE190E00FC0EC89FD8981E0FD
:1005500090E00E8C02C0880F991F0A94E2F7808306
:1005600060E079E08DE390E0A80197010E943904F2
:10057000215030404040504056954795379527953B
:1005800080E12030380710F0DD20B1F6E889F989E4
:100590003083EA89FB892083EE89FF89408181E0ED
:1005A00090E09C010A8C02C0220F331F0A94E2F7EC
:1005B000422B4083EE89FF8940819C010B8C02C055
:1005C000220F331F0A94E2F7422B4083EE89FF8902
:1005D00040819C010C8C02C0220F331F0A94E2F769
:1005E000422B4083EE89FF8920810D8C02C0880F49
:1005F000991F0A94E2F7809582238083DF91CF913F
:100600001F910F91FF90EF90DF9008951092A40139
:100610001092A30188EE93E0A0E0B0E08093A501E2
:100620009093A601A093A701B093A801E3EAF1E09B
:1006300084E091E09293829389E191E095878487A9
:100640008DE591E09787868785EC90E0918B808B94
:1006500084EC90E0938B828B80EC90E0958B848B84
:1006600081EC90E0978B868B86EC90E0918F808F69
:1006700084E0828F83E0838F87E0848F85E0858F9D
:1006800081E0868F0895CF93DF930E941C010E9422
:100690005F00C8E3D2E00E9468002097E1F30E9467
:1006A0003802F9CFCF92DF92EF92FF920F931F9310
:1006B000CF93DF936C017B018A01C0E0D0E00FC0D3
:1006C000D7016D917D01D601ED91FC910190F081F2
:1006D000E02DC6010995C80FD91F01501040011522
:1006E000110571F7CE01DF91CF911F910F91FF900E
:1006F000EF90DF90CF900895DB010D900020E9F797
:10070000AD0141505040461B570BDC01ED91FC916F
:100710000280F381E02D09950895DC01ED91FC91B3
:100720000190F081E02D099508950F931F93CF93C9
:10073000DF93EC016DE00E948D038C01CE016AE035
:100740000E948D03080F191FC801DF91CF911F91DF
:100750000F9108958F929F92AF92BF92CF92DF92A6
:10076000EF92FF920F931F93DF93CF93CDB7DEB736
:10077000A1970FB6F894DEBF0FBECDBF6C01042F5A
:10078000E52FCB01122F19A2223008F41AE021E242
:10079000E22EF12CEC0EFD1E812E9924AA24BB24FE
:1007A00003C0022FE32FCA01602F7E2FA501940101
:1007B0000E943904129F802D1124081B0894E1081F
:1007C000F1080A3014F4005D01C0095CF7010083F0
:1007D000211531054105510521F7C601B7010E94D8
:1007E0007C03A1960FB6F894DEBF0FBECDBFCF91AC
:1007F000DF911F910F91FF90EF90DF90CF90BF900E
:10080000AF909F908F9008952115310549F4DC0138
:10081000ED91FC910190F081E02D642F09950895F0
:100820000E94AA0308950F931F93CF93DF93EC01C7
:100830000E9404048C01CE010E949503080F191F29
:10084000C801DF91CF911F910F91089597FB092E59
:1008500007260AD077FD04D02ED006D000201AF447
:10086000709561957F4F0895F6F7909581959F4F0C
:100870000895A1E21A2EAA1BBB1BFD010DC0AA1FE1
:10088000BB1FEE1FFF1FA217B307E407F50720F0F9
:10089000A21BB30BE40BF50B661F771F881F991F74
:1008A0001A9469F760957095809590959B01AC01BD
:1008B000BD01CF010895AA1BBB1B51E107C0AA1FB0
:1008C000BB1FA617B70710F0A61BB70B881F991FF1
:1008D0005A95A9F780959095BC01CD010895EE0F2A
:0E08E000FF1F0590F491E02D0994F894FFCFCE
:1008EE0000000000BC015203570186016A01A801F5
:00000001FF
